:020000040800F2
:10000000200800201D21000881020008830200084A
:10001000870200088B0200088F0200080000000021
:100020000000000000000000000000009302000833
:1000300095020008000000009702000899020008DD
:100040003721000837210008372100083721000830
:100050003721000837210008372100083721000820
:100060003721000837210008372100083721000810
:100070003721000837210008372100083721000800
:1000800037210008372100083721000837210008F0
:1000900037210008372100083721000837210008E0
:1000A00037210008372100083721000837210008D0
:1000B000A11C0008211D0008231E0008372100088C
:1000C00037210008372100083721000837210008B0
:1000D0003721000893200008372100083721000845
:1000E0003721000837210008372100083721000890
:1000F0003721000837210008372100083721000880
:10010000372100083721000837210008372100086F
:10011000372100083721000837210008372100085F
:10012000372100083721000837210008372100084F
:1001300000F002F800F048F80AA090E8000C8244B1
:100140008344AAF10107DA4501D100F03DF8AFF28E
:10015000090EBAE80F0013F0010F18BFFB1A43F0A5
:1001600001031847A4430000C4430000103A24BF11
:1001700078C878C1FAD8520724BF30C830C144BF0C
:1001800004680C607047000000230024002500264E
:10019000103A28BF78C1FBD8520728BF30C148BFEA
:1001A0000B607047642903F0BD86782903F0F6865A
:1001B000632904F09980732904F09E800020704721
:1001C0001FB51FBD10B510BD04F0C8F81146FFF7EC
:1001D000F7FF00F009F804F0E6F803B4FFF7F2FFC8
:1001E00003BC01F0FBFE00008AB0002420A103C97B
:1001F000CDE90801002004900590069007901EA00C
:100200000068039001F080FE4FF4A06001F0A6FFAB
:100210004FF4E13001F0F1FE01F0A6FC01F09FFB8C
:1002200041F61F41C72001F0C5FC40F6B83001F08F
:10023000A8FE04A81021012308AACDE9001000217E
:1002400003A801F0BCFB11E000F020FC142094FB9B
:10025000F0F100FB114038B90848006808B90120E6
:1002600000E0002005490860601CC4B2ECE7000013
:10027000FFFFFFFFFFFF000049E0059894012342C4
:10028000704700BFFEE700BFFEE700BFFEE700BF0C
:10029000FEE7704770477047704700000CB50020BC
:1002A000019000906C48006840F480306A49086012
:1002B00000BF6948006800F4003000900198401CBD
:1002C0000190009818B90198B0F5A06FF1D162487B
:1002D000006800F4003010B10120009001E000201F
:1002E00000900098012843D15C48006840F010005D
:1002F0005A4908600846006820F003000860084674
:10030000006840F002000860534840685249486065
:100310000846406848600846406840F4806048608D
:100320000846406820F47C1048600846406840F465
:10033000E81048600846006840F08070086000BF20
:100340004548006800F000700028F9D04248406835
:1003500020F00300404948600846406840F0020031
:10036000486000BF3C48406800F00C000828F9D104
:100370000CBD10B5FFF792FF10BD10B536480068F0
:1003800040F001003449086008464068344908409C
:100390003149486008460068324908402E490860E3
:1003A0000846006820F4802008600846406820F471
:1003B000FE0048604FF41F008860FFF7DAFF4FF03F
:1003C00000602949086010BD10B5002100200022FE
:1003D000214B5B6803F00C0121B1042906D00829E8
:1003E00028D107E0214B224C236027E01F4B204CF3
:1003F000236023E0184B5B6803F47010164B5B68B6
:1004000003F48032022303EB904022B9194B43439B
:10041000174C23600DE0104B5B6803F4003323B1ED
:10042000144B4343124C236003E0104B4343104CE6
:10043000236003E00D4B0E4C236000BF00BF064B52
:100440005B68C3F303130C4CE15C094B1B68CB40A6
:10045000074C236010BD0000001002400020024045
:100460000000FFF8FFFFF6FE08ED00E000127A0042
:100470000000002000093D000400002070B5044683
:10048000002520E004F0800020B18021FD4801F02B
:10049000E0FF03E08021FB4801F0DDFF142001F0C4
:1004A0004CFD2021F74801F0D6FF142001F045FD56
:1004B0002021F44801F0CDFF142001F03EFD60063C
:1004C000040E681CC5B2082DDCDB70BD70B5044697
:1004D0000D467E2000EA44061021EA4801F0BBFFE9
:1004E0003046FFF7CBFF2846FFF7C8FF1021E5484D
:1004F00001F0AFFF70BD70B500251CE06006040E72
:100500002021E04801F0A7FF142001F016FD402152
:10051000DC4801F084FF012801D144F001041420DB
:1005200001F00BFD2021D74801F093FF142001F0CA
:1005300004FD681CC5B2082DE0DB204670BD70B517
:1005400004467E2000EA440040F080051021CD489A
:1005500001F081FF2846FFF791FFFFF7CCFF064629
:100560001021C84801F075FF304670BD70B50546D2
:100570000C462846FFF7E3FF064646EA04012846F4
:10058000FFF7A4FF70BD70B505460C462846FFF77F
:10059000D6FF064626EA04012846FFF797FF70BDFE
:1005A0002DE9FE4F0646884691469A46DDF830B062
:1005B000022002900020019000900C2E06D00E2EFA
:1005C00009D1122001901020009005E077200190C1
:1005D0003020009000E000BF00BF019840F0800193
:1005E0000220FFF773FF80210420FFF7CCFF0021DA
:1005F0000120FFF76BFF80210A20FFF7B7FF0025DE
:1006000005E018F805100920FFF760FF6D1C4D4547
:10061000F7D331460120FFF759FF0C2E03D180217B
:100620000D20FFF7A3FF4FF47A7500BF0420FFF7FA
:1006300086FF04466D1E35B104F0010018B900981C
:1006400020400028F2D080210D20FFF79CFF95B3B9
:100650000620FFF774FF00F01B0068BB002002902B
:100660000198204000F0010008B1012002900C2EFA
:1006700024D10A20FFF763FF04460C20FFF75FFF39
:1006800000F007072FB1601E07EBC000CBF8000099
:1006900002E0E000CBF8000004B90124122C00DDD8
:1006A0001224002505E00920FFF749FF0AF805009C
:1006B0006D1CA542F7D301E00220029080210C209E
:1006C000FFF754FF00210120FFF700FF0298BDE86B
:1006D000FE8F2DE9F0410746884615460421052086
:1006E000FFF751FF00210120FFF7F0FE80210A20D3
:1006F000FFF73CFF002405E0395D0920FFF7E6FE27
:10070000601CC4B24445F7DB03210120FFF7DEFE85
:10071000FF2400BF0520FFF712FF0646601EC4B28B
:100720001CB106F004000028F4D02220FFF707FFD8
:1007300028702120FFF703FF6870BDE8F081F0B555
:1007400087B006460F46A0208DF808008DF8096096
:100750000DF10A02022102A8FFF7BBFF01A802ABBC
:10076000042202A900900C20FFF71AFF054645B9A4
:100770000198042805D19DF8080000F00F000A2810
:1007800000D0022535BB1022394602A803F0CEFC6A
:10079000002404E0385D02A90855601CC4B2102C86
:1007A000F8DB06AA102102A8FFF793FF01A802AB0D
:1007B000122202A900900C20FFF7F2FE054645B96F
:1007C0000198042805D19DF8080000F00F000A28C0
:1007D00000D00225284607B0F0BD3EB505460024EE
:1007E00046E0285DC11700EB117109110DF81410D6
:1007F0001DF81400092806DD1DF814003730C0B2BA
:100800000DF8140005E01DF814003030C0B20DF8EA
:100810001400285DC11700EB11710911A0EB011143
:10082000C9B2012202EB44020DF80210012000EBD4
:1008300044001DF8000009280CDD012000EB4400F5
:100840001DF800003730C0B2012101EB44010DF862
:1008500001000BE0012000EB44001DF800003030E7
:10086000C0B2012101EB44010DF80100601CC4B2CB
:10087000042CB6DB00208DF80800694602A003F0C6
:10088000F5FA03E00008014025732000FEA003F004
:10089000EDFA3EBDF0B587B005460E4630208DF826
:1008A00008008DF809500DF10A02022102A8FFF795
:1008B00010FF01A802AB042202A900900C20FFF750
:1008C0006FFE074667B90198902809D1002404E01B
:1008D00002A8005D3055601CC4B2102CF8DB00E0AB
:1008E0000227384607B0F0BD2DE9F04387B0064631
:1008F0000F46904699468DF808608DF809700024DF
:1009000006E018F8041002AAA01C1154601CC4B21E
:10091000062CF6DB002407E019F8041002AA04F103
:1009200008001154601CC4B2062CF5DB01A802AB10
:100930000C2202A900900E20FFF732FE05462DB9C9
:100940000820FFF7FCFD00F0080000B9022528464A
:1009500007B0BDE8F08370B588B0054693208DF8E8
:100960000C0070208DF80D0000208DF8120000247E
:100970000BE0295D03AAA01C11549DF81200295D0B
:1009800048408DF81200601CC4B2042CF1DB0DF15C
:100990001302072103A8FFF79CFE08210846FFF772
:1009A000F2FD02A803AB092203A900900C20FFF777
:1009B000F7FD064626B90298182801D1002600E066
:1009C0000226304608B070BDF0B587B00546002756
:1009D00008210846FFF7D7FD00210D20FFF776FD1F
:1009E00080210E20FFF7CFFD93208DF808002020F6
:1009F0008DF8090001A802AB022202A900900C2088
:100A0000FFF7CEFD064686B9002407E002A8005D88
:100A1000285502A8005D4740601CC4B2042CF5DBD9
:100A200002A8005DB84200D0022680210E20FFF708
:100A30009DFD304607B0F0BD70B588B005460C4648
:100A400008210846FFF79FFD07210D20FFF73EFD17
:100A500003211420FFF78AFD8DF80C5002A803AB88
:100A6000012203A900900C20FFF79AFD06464EB91B
:100A70000298102806D19DF80C0020709DF80D00FA
:100A8000607000E00226304608B070BD2DE9F041EC
:100A900000260027B046002430257D495220FFF76C
:100AA000CBFF7C4908700846007830B902200870F6
:100AB0007948FFF789FF774908707648007838B998
:100AC0000220744908707448FFF745FF71490870A7
:100AD0007048007890B902206E4908706E4B6F4ADA
:100AE0000B216020FFF700FF6A4908706A4B6C4ACF
:100AF0000B216120FFF7F8FE664908706548007811
:100B000000BB022063490870664967480078FFF718
:100B1000C1FE604908700846007898B9002608E0D0
:100B20006048805D303807EB870100EB4107701C9F
:100B3000C6B2032EF4DB5848FFF74FFE39465BA0E0
:100B400003F094F95348007800285CD15848008895
:100B500000F40040A0B15748007830386421484381
:100B600054494978303901EB810100EB410151488A
:100B7000807830380C184F48C57800204C490880E0
:100B8000312D01D0322D3DD1B9214B4802F09CFDD1
:100B90004FF47A7001F0F5F9C321474802F094FD53
:100BA0004FF4FA6001F0EDF9322D27D1642094FB67
:100BB000F0F03030414908700A2094FBF0F00A212F
:100BC00090FBF1F201FB120030303C4948700A20E2
:100BD00094FBF0F100FB114030303849887002205E
:100BE0002C4908704FF47A7001F0CBF933492E4844
:100BF0000078FFF7A4FD2749087003E040F6B830FD
:100C000001F0BFF900BF40F6B83001F0BAF9BDE815
:100C1000F08110B500241E495220FFF70DFF1D4939
:100C200008700846007830B9022008701A48FFF7AB
:100C3000CBFE184908701748007800287ED10220A2
:100C4000144908701448FFF7C8FD134800781C4980
:100C50000978884217D11048407819494978884264
:100C600011D10D4880781649897888420BD10A48FD
:100C7000C0781349C978884205D10120114908700C
:100C800011A003F0F3F82BE06775696C696E200022
:100C900014000020840000201600002034000020F2
:100CA0003A000020B40000208500002025642000C8
:100CB0009C000020F4000020002C0140E4000020F3
:100CC000200000201A0000200D0A5468652055738A
:100CD00065722069733A636172645F300D0A0000C7
:100CE000FE480078FE490978884217D1FB484078D1
:100CF000FB494978884211D1F8488078F8498978C9
:100D000088420BD1F548C078F549C978884205D1A9
:100D10000120F4490870F4A003F0A8F8EF48007827
:100D2000F7490978884219D1EC484078F449497864
:100D3000884213D1E9488078F14900E04FE0897892
:100D400088420BD1E548C078ED49C978884205D181
:100D50000120EC490870ECA003F088F8DF48007827
:100D6000EF490978884217D1DC484078EC49497846
:100D7000884211D1D9488078E949897888420BD1D5
:100D8000D648C078E649C978884205D10120E549AE
:100D90000870E5A003F06AF8D0480078E8490978BF
:100DA000884217D1CD484078E5494978884211D129
:100DB000CA488078E249897888420BD1C748C07810
:100DC000DF49C978884205D10120DE490870DEA0DC
:100DD00003F04CF8C148FFF7BEFDE1490870E04858
:100DE0000078002826D10220DD490870BB4BDD4A7F
:100DF0000B216020FFF778FDD9490870084600787C
:100E000018B9D9A003F032F802E0DEA003F02EF802
:100E1000B24BE34A0B216120FFF766FDD049087011
:100E20000846007818B9DFA003F020F802E0E4A03B
:100E300003F01CF8CA48007808BB0220C8490870B3
:100E4000E649E7480078FFF725FDC54908700846E0
:100E5000007888B9E3A003F009F8002406E0DF4831
:100E6000015DE2A003F002F8601CC4B2102CF6DBB6
:100E7000A2A002F0FBFF02E0DEA002F0F7FFB848FC
:100E80000078F0B90220B6490870DFA002F0EEFF4A
:100E90004FF47A7001F075F8EA49D1480078FFF70D
:100EA0004EFCAF4908700846007818B9E6A002F079
:100EB000DDFF06E0EAA002F0D9FF40F6B83001F00D
:100EC00060F8A748007808BB0220A5490870C3490C
:100ED000C3480078FFF7DEFCA14908700846007897
:100EE00088B9C0A002F0C2FF002406E0BB48015D43
:100EF000BEA002F0BBFF601CC4B2102CF6DB7FA0CA
:100F000002F0B4FF02E0BBA002F0B0FF944800780A
:100F100048B9022092490870D6A002F0A7FF4FF40A
:100F20007A7001F02EF810BD70B500240F25DD4950
:100F30005220FFF781FD8A4908700846007830B9D1
:100F4000022008706548FFF73FFD85490870844816
:100F50000078002847D10220814908705F48FFF7D8
:100F60003CFC5E480078D0490978884218D15B483B
:100F70004078CD494978884212D158488078CA498A
:100F8000897888420CD15548C078C749C9788842C9
:100F900006D10120C5490870AFF2D42002F066FFE7
:100FA0004E4800784E490978884217D14B4840781E
:100FB0004B494978884211D1484880784849897816
:100FC00088420BD14548C0784549C978884205D147
:100FD00001204449087044A002F048FF3F48FFF751
:100FE000BAFC5F4908705E48007800282AD10220C8
:100FF0005B490870394B5B4A29466020FFF774FC57
:10100000574908700846007818B957A002F02EFF1B
:1010100006E05CA002F02AFF00205149087050E071
:101020002E4B5F4A29466120FFF75EFC4C49087051
:101030000846007818B95BA002F018FF02E060A033
:1010400002F014FF4648007800BB022044490870B3
:1010500062492846FFF71EFC41490870084600789F
:1010600088B960A002F002FF002406E05B48015D41
:101070008FA002F0FBFE601CC4B2102CF6DB1FA098
:1010800002F0F4FE02E05BA002F0F0FE34480078CB
:10109000B0B902203249087086492846FFF74FFB55
:1010A0002F4908700846007818B983A002F0DEFEC8
:1010B00006E088A002F0DAFE40F6B83000F061FFEA
:1010C00000BF27480078002806D102202449087074
:1010D000024B874A29460DE12DE100001600002051
:1010E000240000201B0000200D0A54686520557361
:1010F00065722069733A636172645F310D0A0000A2
:10110000280000201C0000200D0A5468652055733B
:1011100065722069733A636172645F320D0A000080
:101120002C0000201D0000200D0A54686520557316
:1011300065722069733A636172645F330D0A00005F
:10114000300000201E0000200D0A546865205573F1
:1011500065722069733A636172645F340D0A00003E
:10116000840000203400002050636441757468538B
:101170007461746528412920737563636573730D09
:101180000A000000506364417574685374617465AB
:10119000284129206661696C65640D0A0000000021
:1011A0003A0000205063644175746853746174653B
:1011B00028422920737563636573730D0A0000006C
:1011C00050636441757468537461746528422920C2
:1011D0006661696C65640D0A00000000B4000020BF
:1011E00085000020444154413A0000002530327807
:1011F0000000000050636452656164282920666124
:10120000696C65640D0A0000577269746520746822
:101210006520636172642061667465722031207399
:1012200065636F6E642E20446F206E6F74206D6F47
:1012300076652074686520636172642121210D0A3E
:1012400000000000E4000020506364577269746578
:10125000282920737563636573730D0A000000000D
:1012600050636457726974652829206661696C65EA
:10127000640D0A0052433532325F48616E646C651A
:1012800028292072756E2066696E6973686564200E
:1012900061667465722031207365636F6E64210D21
:1012A0000A00000014000020200000201A00002086
:1012B000256300004600002050636457726974651E
:1012C0002852464944312920737563636573730D51
:1012D0000A000000506364577269746528524649D9
:1012E000443129206661696C65640D0A00000000C4
:1012F000660000206020FFF7F7FAF1490870084601
:10130000007818B9EFA002F0B1FD02E0F4A002F0FD
:10131000ADFDFA4BFA4A29466120FFF7E5FAE849A4
:1013200008700846007818B9F6A002F09FFD02E0A8
:10133000FBA002F09BFDE248007818BB0220E049C8
:101340000870FE492846FFF7A5FADD4908700846EF
:10135000007898B9AFF2741002F088FD002407E01D
:10136000F648015DAFF27C1002F080FD601CC4B253
:10137000102CF5DBD9A002F079FD03E0AFF28C1060
:1013800002F074FDCE480078B0B90220CC49087054
:10139000EB492846FFF7D3F9C94908700846007899
:1013A00018B9E8A002F062FD06E0EDA002F05EFDD3
:1013B00040F6B83000F0E5FDC148007818BB0220C7
:1013C000BF490870DD492846FFF764FABC49087038
:1013D0000846007898B9AFF2F41002F047FD0024F7
:1013E00007E0D648015DAFF2FC1002F03FFD601C43
:1013F000C4B2102CF5DBB9A002F038FD03E0AFF267
:101400000C2002F033FDAE48007848B90220AC4908
:101410000870DAA002F02AFD4FF47A7000F0B1FDF6
:1014200070BD30B5C5B01325002400204390449012
:101430004FF48272DD4902A802F0BDFE0020009048
:101440000190DB495220FFF7F7FA9D4908700846E2
:10145000007830B902200870A848FFF7B5FA98491B
:1014600008709748007800282FD10220944908700E
:10147000A248FFF7B2F9A1480078CE49097888421E
:1014800019D19E484078CB494978884213D19B486E
:101490008078C849897888420DD19848C078C54974
:1014A000C978884207D10120C3490870AFF2E870BB
:1014B00002F0DCFC04E0C1A002F0D8FC45B030BD75
:1014C0008E48FFF748FA7E4908707D48007800286A
:1014D0007ED102207A49087000208DF8000093E048
:1014E00000208DF8010084E000208DF8020076E0F5
:1014F00000208DF8030066E000208DF8040058E01D
:1015000000208DF805004AE09DF8000002A9085C63
:101510008DF80C019DF80100085C8DF80D019DF817
:101520000200085C8DF80E019DF80300085C8DF840
:101530000F019DF80400085C8DF810019DF805006E
:10154000085C8DF811016D4B43AA29466020FFF716
:10155000CBF95B4908700846007820B9AFF2F83043
:1015600002F084FC56E09CA002F080FC634B43AA8E
:1015700029466120FFF7B8F95149087008460078FC
:1015800020B9AFF2E03002F071FC43E093A002F02A
:101590006DFC9DF80500401CC0B28DF805009DF85B
:1015A0000500FF28B0DD9DF80400401CC0B28DF896
:1015B00004009DF80400FF28A2DD9DF80300401CF4
:1015C000C0B28DF803009DF80300FF2894DD00E011
:1015D0001FE09DF80200401CC0B28DF802009DF88B
:1015E0000200FF2884DD9DF80100401CC0B28DF888
:1015F00001009DF80100FF287FF776AF9DF80000FD
:10160000401CC0B28DF800009DF80000FF287FF755
:1016100067AF00BF2A48007818BB0220284908702D
:1016200046492846FFF736F92549087008460078EC
:1016300098B9AFF2504002F019FC002407E03F488F
:10164000015DAFF2584002F011FC601CC4B2102CD6
:10165000F5DB22A002F00AFC03E0AFF2684002F0E2
:1016600005FC40F6B83000F08CFC00BF26E710B552
:101670001420FEF764FF044604F0030018B90321A8
:101680001420FEF773FF10BD10B50446412C15D190
:1016900008210846FEF777FF3D211120FEF716FFCF
:1016A00086211720FEF712FF7F212620FEF70EFF6E
:1016B0001E212D20FEF70AFF002191E0A0E000008E
:1016C00084000020506364417574685374617465CC
:1016D0002841312920737563636573730D0A000017
:1016E000506364417574685374617465284131298D
:1016F000206661696C65640D0A0000001600002018
:10170000720000205063644175746853746174659D
:101710002842312920737563636573730D0A0000D5
:10172000506364417574685374617465284231294B
:10173000206661696C65640D0A000000B400002039
:1017400056000020506364577269746528524649F8
:1017500044322920737563636573730D0A000000BA
:10176000506364577269746528524649443229208F
:101770006661696C65640D0A0000000052433532F1
:10178000325F48616E646C653128292072756E2065
:1017900066696E697368656420616674657220317C
:1017A000207365636F6E64210D0A0000CC4300084E
:1017B00014000020200000201A0000200D0A5468A8
:1017C0006520557365722069736E27743A63617280
:1017D000645F300D0A0000002E0000002C000000A5
:1017E0002C20FEF773FE8D212A20FEF76FFE3E218E
:1017F0002B20FEF76BFE022000F09FFBFFF737FF68
:1018000010BD10B50121B84800F023FE012000F002
:1018100094FB0121B44800F01EFE012000F08DFB76
:101820000121B14800F015FE012000F086FB0F21D8
:101830000120FEF74BFE00BF0120FEF780FE00F006
:1018400010000028F8D1012000F077FB3D21112085
:10185000FEF73CFE1E212D20FEF738FE00212C2035
:10186000FEF734FE8D212A20FEF730FE3E212B208C
:10187000FEF72CFE40211520FEF728FE10BD00B516
:1018800087B001210C2000F0F3FF0121080300F0D4
:10189000FCFF1020ADF818008DF81B0003208DF818
:1018A0001A0006A9914800F027FD2020ADF8180085
:1018B00010208DF81B0003208DF81A0006A98B4814
:1018C00000F01AFD4020ADF8180004208DF81B0030
:1018D00003208DF81A0006A9844800F00DFD802031
:1018E000ADF8180010208DF81B0003208DF81A00A9
:1018F00006A97E4800F000FD0120ADF81800102078
:101900008DF81B0003208DF81A0006A9764800F018
:10191000F3FC0020ADF804004FF48270ADF806002F
:101920000020ADF808000220ADF80A000120ADF853
:101930000C004002ADF80E003820ADF81000002079
:10194000ADF812000720ADF8140001A9684802F0B4
:101950002BF90121664802F0CCF907B000BD10B5A3
:10196000FFF78DFF0121604800F073FD10215F48F3
:1019700000F06FFDFFF745FF4120FFF785FE10BD2A
:1019800010B503211420FEF7FEFD10BD00B587B091
:1019900050208DF8080000208DF809000DF10A0292
:1019A000022102A8FEF795FE01A802AB042202A9BB
:1019B00000900C20FEF7F4FD002007B000BD2DE9DB
:1019C000F84F06460F4693469846DDE90A9A0025E9
:1019D0000020009069465220FFF72EF804461CB9FB
:1019E0006846FEF7FAFE01E0BDE8F88F6846FEF7AC
:1019F000EBFF044604B1F7E73046FEF7ACFF0446C0
:101A00001CB13CA002F032FAEEE73FB933465A4629
:101A100049466020FEF768FF044606E033465A4612
:101A200049466120FEF760FF04461CB136A002F073
:101A30001DFAD9E7B8F1000F1ED051464846FEF70F
:101A400029FF04469CB935A002F010FA002507E0F2
:101A50001AF80510AFF66C0002F008FA681CC5B25F
:101A6000102DF5DBAFF28C3002F000FA13E0AFF688
:101A70007C0002F0FBF9B7E751464846FEF75FFEEF
:101A800004461CB927A002F0F1F904E0AFF63000DB
:101A900002F0ECF9A8E7FFF779FF04461CB927A08C
:101AA00002F0E4F903E02BA002F0E0F99CE700BFAC
:101AB0009AE738B516E069465220FEF7BDFF0446A6
:101AC00064B169465220FEF7B7FF044634B1694657
:101AD0005220FEF7B1FF044604B138BD4FF47A70CE
:101AE00000F04FFAE7E70000000C01400008014059
:101AF0000030014055494420646F6E2774206D61A9
:101B00007463680D0A0000004B455920646F6E270E
:101B100074206D617463680D0A0000006461746173
:101B20003A00000050636457726974652829206682
:101B3000696E69736865640D0A000000506364484B
:101B4000616C7428292066696E69736865640D0A82
:101B50000000000050636448616C742829206661AD
:101B6000696C65640D0A000008B50121482000F089
:101B70007FFE2020ADF8000010208DF80300032028
:101B80008DF802006946094800F0B6FB202107489D
:101B900000F05FFC2020ADF800006946044800F02A
:101BA000ABFB2021024800F054FC08BD000C0140B2
:101BB0000018014030B589B005460C460121C80225
:101BC00000F056FE0121042000F052FE4FF4807018
:101BD000ADF8200018208DF8230003208DF8220096
:101BE00008A9C24800F088FBADF81850ADF81440C1
:101BF0000020ADF81A00ADF8160005A9BC4800F0A9
:101C00006FFF7020ADF804000120ADF80600002041
:101C1000ADF80A00ADF80C0001A9B54800F09DFF31
:101C20000121B34801F0C4FA0821B14801F0E4FBF6
:101C30000121AF4801F0B0FB0121AD4801F0ACFA41
:101C400009B030BD7FB505460C460121084600F0BD
:101C50001CFEADF80850ADF804400020ADF80A00B5
:101C6000ADF8060001A94FF0804000F039FF0122D5
:101C70001146900701F0ABFA1C208DF800000020FF
:101C80008DF8010003208DF8020001208DF803007B
:101C9000684600F068FA0121880701F07DFA7FBDEF
:101CA00010B50121880701F040FD58B101218807D6
:101CB00001F04CFD8F48006808B9012000E00020C9
:101CC0008C49086010BD7FB505460C4601210220F5
:101CD00000F0DBFDADF80850ADF804400020ADF891
:101CE0000A00ADF8060001A9834800F0F9FE0122C0
:101CF0001146814801F06BFA1D208DF8000000208C
:101D00008DF8010003208DF8020001208DF80300FA
:101D1000684600F028FA0121774801F03DFA7FBDBE
:101D200010B50121744801F000FD58B1012172483D
:101D300001F00CFD6F48006808B9012000E00020A8
:101D40006C49086010BD30B589B005460C460121CC
:101D5000022000F09AFD0121092000F089FD0121F7
:101D6000664800F09AFB2020ADF8200018208DF87E
:101D7000230003208DF8220008A9614800F0BCFA76
:101D8000ADF81850ADF814400020ADF81A00ADF8C9
:101D9000160005A9584800F0A3FE7020ADF8040015
:101DA0000120ADF806000020ADF80C0001A9524852
:101DB00000F015FF0821504801F027FB01214E4893
:101DC00001F0EAF909B030BD7FB505460C460121A6
:101DD000042000F05AFDADF80850ADF80440002092
:101DE000ADF80A00ADF8060001A9464800F078FEFB
:101DF00001221146434801F0EAF91E208DF8000047
:101E000000208DF8010003208DF8020001208DF8DC
:101E10000300684600F0A7F901213A4801F0BCF937
:101E20007FBD10B50121374801F07FFC58B1012179
:101E3000344801F08BFC2F48006808B9012000E00D
:101E400000202C49086010BD30B589B005460C460D
:101E50000121042000F019FD0121082000F008FDF7
:101E60008020ADF8200018208DF8230003208DF885
:101E7000220008A9224800F03FFA8021204800F003
:101E8000E8FAADF81850ADF814400020ADF81A008B
:101E9000ADF8160005A91B4800F022FE7020ADF831
:101EA00004000120ADF806000020ADF80C0001A9E7
:101EB000144800F052FE7020ADF804000120ADF887
:101EC00006000020ADF80C0001A90E4800F087FEC6
:101ED00008210C4801F090FA08210A4801F095FA0F
:101EE0000121084801F058F909B030BD000801404F
:101EF000002C0140940123420004004000081A0015
:101F0000000C01400008004010B56FF0040000F024
:101F100074F92E4800682E49B0FBF1F02D49087085
:101F20000846007800EB4001C1EBC0104FF6FF718E
:101F300001EAC0002849088010BD0146254A1278F0
:101F40004A434FF0E0235A6100229A611A4612690F
:101F500042F001021A6100BF4FF0E022106900F068
:101F600001021AB100F48032002AF5D04FF0E022CD
:101F7000126922F001024FF0E0231A6100229A61F7
:101F800070470146144A12884A434FF0E0235A61D1
:101F900000229A611A46126942F001021A6100BFDA
:101FA0004FF0E022106900F001021AB100F4803213
:101FB000002AF5D04FF0E022126922F001024FF022
:101FC000E0231A6100229A6170470000000000209F
:101FD00000127A009400002096000020014600BF05
:101FE000704700BF494A128802F04002002AF9D027
:101FF000C2B2464B1B1D1A80704710B586B004460E
:10200000012144F2040000F033FC4FF40070ADF8FD
:10201000140003208DF8160018208DF8170005A96C
:102020003B4800F069F94FF48060ADF814000420DB
:102030008DF8170005A9364800F05EF925208DF8C7
:10204000000003208DF801008DF8020001208DF8BA
:102050000300684600F087F801940020ADF80800FE
:10206000ADF80A00ADF80C00ADF810000C20ADF88A
:102070000E0001A9254801F0B0FB012240F22551D4
:10208000224801F042FC0121204801F032FC06B058
:1020900010BD10B540F225511C4801F01BFD10B3D6
:1020A0001A4801F097FCC4B21A48008800F40040B6
:1020B000C8B91848008800F4804060B10A2C03D0E9
:1020C00000201449088020E01248008840F40040B5
:1020D0001049088019E00D2C06D10E48008840F404
:1020E00080400C49088010E00A480088C0F30D00C9
:1020F00009490C5407480088401C064908800846D6
:102100000088C72801DD0020088010BD003801408C
:10211000000801409C000020F4000020094880478E
:1021200009480047FEE7FEE7FEE7FEE7FEE7FEE7B9
:10213000FEE7FEE7FEE7FEE704480549054A064BD1
:10214000704700007B0300083101000820020020D6
:1021500020080020200400202004002031490143F1
:10216000314A1160704770B5002100230F22C478F6
:1021700004B32D4C246804F4E064C4F5E064210A3F
:10218000C1F10403CA40447804FA03F1847814408E
:1021900021430901254C0678A155047804F01F0558
:1021A0000124AC4005786D11AD0005F1E025C5F8BE
:1021B000004109E0047804F01F050124AC401C4DE7
:1021C0000678761145F8264070BD1A4A0A40024347
:1021D000154B1B1F1A60704739B1134A121D126844
:1021E0000243114B1B1D1A6006E00F4A121D1268B4
:1021F00082430D4B1B1D1A607047042808D14FF015
:10220000E021096941F004014FF0E022116107E08B
:102210004FF0E021096921F004014FF0E022116143
:10222000704700000000FA050CED00E000E400E05B
:1022300080E100E080FFFF1F10B50446CC488442D7
:1022400008D10121042000F02DFB0021042000F022
:1022500029FB46E0C748844208D10121082000F04C
:1022600021FB0021082000F01DFB3AE0C248844217
:1022700008D10121102000F015FB0021102000F0F2
:1022800011FB2EE0BD48844208D10121202000F03E
:1022900009FB0021202000F005FB22E0B848844221
:1022A00008D10121402000F0FDFA0021402000F07B
:1022B000F9FA16E0B348844208D10121802000F0E9
:1022C000F1FA0021802000F0EDFA0AE0AE488442E5
:1022D00007D10121801500F0E5FA0021A01500F0DA
:1022E000E1FA10BD10B50121084600F0DBFA00212B
:1022F000012000F0D7FA10BD2DE9F041024600257B
:102300000026002000230024002791F803C00CF0D1
:102310000F0591F803C00CF0100CBCF1000F03D0B6
:1023200091F802C04CEA050591F800C0BCF1000F1D
:1023300031D0146800202BE04FF0010C0CFA00F3B0
:10234000B1F800C00CEA03069E4220D183004FF092
:102350000F0C0CFA03F7BC4305FA03FC4CEA040427
:1023600091F803C0BCF1280F06D14FF0010C0CFA14
:1023700000FCC2F814C00AE091F803C0BCF1480F99
:1023800005D14FF0010C0CFA00FCC2F810C0401C43
:102390000828D1D31460B1F800C0BCF1FF0F34DDC0
:1023A000546800202EE000F1080C4FF0010808FAF4
:1023B0000CF3B1F800C00CEA03069E4221D1830061
:1023C0004FF00F0C0CFA03F7BC4305FA03FC4CEA80
:1023D000040491F803C0BCF1280F05D100F1080CEA
:1023E00008FA0CF8C2F8148091F803C0BCF1480F49
:1023F00007D100F1080C4FF0010808FA0CF8C2F8F8
:102400001080401C0828CED35460BDE8F0814FF600
:10241000FF710180022181700421C1707047024662
:10242000002093680B400BB1012000E000207047B2
:102430000146886880B2704702460020D3680B408E
:102440000BB1012000E0002070470146C86880B24F
:10245000704701617047416170470AB1016100E056
:1024600041617047C16070474FF480320A43826116
:102470008161826182698269704702460020434B14
:1024800018684FF68073184040EA021008433F4B2B
:10249000186070473E49C8617047F0B50A4600238E
:1024A00000240021002500F00046B6F1004F02D1C3
:1024B000364EF16901E0354E7168C0F3034583B2D1
:1024C00000F44016B6F5401F08D121F070612F4E80
:1024D000766826F070662D4F7E6012E000F480165C
:1024E000B6F5801F06D1032606FA05F4A14341F094
:1024F000706106E0460D360103FA06F6B14341F07D
:10250000706122B1460D360103FA06F6314300F040
:102510000046B6F1004F02D11C4EF16101E01B4EA6
:102520007160F0BD30B500228B071C0F0F2303FA3A
:1025300004F2164B08338C1053F824309343134C99
:1025400008348D1044F8253023468C1053F824307D
:102550008C07240F00FA04F423430C4C08348D102C
:1025600044F8253030BD0A49DC310860704700006E
:1025700000080140000C014000100140001401401F
:1025800000180140001C01400020014000000140F3
:1025900000002042DF48006840F00100DD4908608B
:1025A00008464068DC490840DA4948600846006847
:1025B000DA490840D74908600846006820F48020BE
:1025C00008600846406820F4FE0048604FF41F0091
:1025D00088607047CF49096821F48031CD4A116085
:1025E0001146096821F480211160B0F5803F03D0C5
:1025F000B0F5802F0ED106E0C649096841F480315C
:10260000C44A116007E0C349096841F4A021C14AE6
:10261000116000E000BF00BF704710B50146002206
:10262000002300204A11012A02D1BA4C236806E097
:10263000022A02D1B74C236A01E0B64C636A01F06A
:102640001F02012494401C400CB1012000E0002036
:1026500010BD38B5002000900024002500BF3120B7
:10266000FFF7DBFF05460098401C00900098B0F58E
:10267000A06F01D0002DF2D03120FFF7CEFF08B1BE
:10268000012400E00024204638BD01460020A14A74
:10269000106820F0F80040EAC10010607047A049BF
:1026A00008607047024600209A4B586820F47C105E
:1026B00042EA01031843974B5860704798490866EF
:1026C000704701460020934A506820F003000843F9
:1026D000506070478F48406800F00C00704701461A
:1026E00000208C4A506820F0F0000843506070478A
:1026F00001460020874A506820F4E060084350609B
:10270000704701460020834A506820F4605040EA38
:10271000C1005060704729B17E4A527A02437D4B16
:102720005A7204E07B4A527A82437A4B5A7270475B
:102730007B49D8310860704701460020754A5068CF
:1027400020F440400843506070470021714A203215
:102750001170704A82F82010012802D004280AD192
:1027600004E001216B4A2032117005E00521694A1D
:102770002032117000E000BF00BF70476949086057
:1027800070476449096A0143624A116270476549AA
:1027900044390860704730B500210022002400232E
:1027A0005C4D6D6805F00C0121B1042905D00829A4
:1027B00023D105E05C4D056022E05B4D05601FE024
:1027C000544D6D6805F47012524D6D6805F48034F7
:1027D000022505EB92421CB9544D554305600BE0B0
:1027E0004C4D6D6805F400351DB1504D55430560E5
:1027F00002E04D4D5543056002E04B4D056000BFC2
:1028000000BF444D6D6805F0F0010909484D6B5C4F
:102810000568DD4045603F4D6D6805F4E061090ADB
:10282000434D6B5C4568DD4085603A4D6D6805F44D
:102830006051C90A3E4D6B5C4568DD40C560354D51
:102840006D6805F44041890B3A4D6B5CC568B5FB7A
:10285000F3F5056130BD29B12E4A526902432D4B73
:102860005A6104E02B4A526982432A4B5A617047ED
:1028700029B1284A92690243264B9A6104E0254A0D
:1028800092698243234B9A61704729B1214AD269E8
:102890000243204BDA6104E01E4AD26982431D4B99
:1028A000DA61704729B11B4AD2680243194BDA60DA
:1028B00004E0184AD2688243164BDA60704729B1A7
:1028C000144A12690243134B1A6104E0114A126957
:1028D0008243104B1A6170471249403908607047B3
:1028E0000F49C86470470B49C87170470948406A6E
:1028F00040F0807007494862704701460020054A51
:1029000092680A400AB1012000E0002070470149A6
:1029100088727047001002400000FFF8FFFFF6FECB
:10292000000042428004424200127A0000093D0049
:102930009E000020AE00002010B50446FE488442F0
:1029400008D10121C014FFF7ADFF0021E014FFF70B
:10295000A9FFC4E0B4F1804F08D101210846FFF778
:10296000AEFF00210120FFF7AAFFB8E0F348844240
:1029700008D101210220FFF7A2FF00210220FFF76A
:102980009EFFACE0EE48844208D101210420FFF70D
:1029900096FF00210420FFF792FFA0E0E94884425F
:1029A00008D101210820FFF78AFF00210820FFF746
:1029B00086FF94E0E448844208D101211020FFF70B
:1029C0007EFF00211020FFF77AFF88E0DF48844275
:1029D00008D101212020FFF772FF00212020FFF7FE
:1029E0006EFF7CE0DA48844208D101214014FFF7F1
:1029F00059FF00216014FFF755FF70E0D54884426D
:102A000009D10121C804FFF74DFF00214FF4002038
:102A1000FFF748FF63E0D048844209D1012108054F
:102A2000FFF740FF00214FF48010FFF73BFF56E017
:102A3000CA48844209D101214805FFF733FF00212C
:102A40004FF40010FFF72EFF49E0C548844208D13B
:102A500001214020FFF733FF00214020FFF72FFF27
:102A60003DE0C048844208D101218020FFF727FFC4
:102A700000218020FFF723FF31E0BB48844208D1CA
:102A800001218015FFF71BFF0021A015FFF717FF9D
:102A900025E0B648844209D101210804FFF702FF6E
:102AA00000214FF48030FFF7FDFE18E0B04884426B
:102AB00009D101214804FFF7F5FE00214FF4003051
:102AC000FFF7F0FE0BE0AB48844208D101218804F7
:102AD000FFF7E8FE00214FF48020FFF7E3FE10BD72
:102AE00000220288944B98420ED0994B98420BD00A
:102AF000B0F1804F08D0914B984205D0904B98424E
:102B000002D0904B984204D14FF68F731A404B88F5
:102B10001A438D4B984207D08C4B984204D04FF605
:102B2000FF431A40CB881A4302808B8883850B8829
:102B30000385814B98420BD0854B984208D08B4B34
:102B4000984205D08A4B984202D08A4B984201D1D4
:102B50000B7A038601238382704770B5002400221C
:102B60000023058C4FF6FE7635400584028C838861
:102B7000048B4FF68F752C40B51E2C400D882C43CE
:102B8000751E2A400D892A434D882A436A4DA84262
:102B90000BD06F4DA84208D0744DA84205D0744D9B
:102BA000A84202D0734DA84213D14FF6F7752A40C0
:102BB0004D892A434FF6FB752A408D882A434FF6EC
:102BC000FF652B404FF6FF552B408D892B43CD8958
:102BD0002B4383800483CD888586028470BD70B5C5
:102BE000002400220023058C4FF6EF763540058443
:102BF000028C8388048B48F6FF752C404FF6FF4506
:102C00002C400D884FF6FF7606EA05252C434FF63B
:102C1000DF752A400D8906EA05152A434D8806EA24
:102C200005152A43444DA84202D0494DA8421DD162
:102C30004FF67F752A404D894FF6FF7606EA051557
:102C40002A434FF6BF752A408D8806EA05152A43A8
:102C50004FF6FF352B404FF2FF752B408D8906EA6A
:102C600085052B43CD8906EA85052B4383800483A4
:102C7000CD880587028470BD70B500240022002332
:102C8000058C4FF6FF6635400584028C8388848B63
:102C90004FF68F752C404FF6FC752C400D882C4359
:102CA0004FF6FF552A400D894FF6FF7606EA0525B7
:102CB0002A434D8806EA05252A431F4DA84202D023
:102CC000234DA8421DD14FF2FF752A404D894FF682
:102CD000FF7606EA05252A434FF6FF352A408D8800
:102CE00006EA05252A434EF6FF752B404DF6FF7583
:102CF0002B408D8906EA05152B43CD8906EA05157B
:102D00002B4383808483CD888587028470BD70B512
:102D1000002200230024058C4EF6FF763540058402
:102D2000038C8488828B48F6FF752A404FF6FF4556
:102D30002A400D8820E00000002C014000040040E3
:102D400000080040000C004000100040001400404B
:102D500000340140004C014000500140005401404B
:102D600000180040001C00400020004000400140CE
:102D700000440140004801404FF6FF7606EA052571
:102D80002A434DF6FF752B400D8906EA05352B4386
:102D90004D8806EA05352B43FA4DA84202D0FA4D7C
:102DA000A84208D14BF6FF752C408D894FF6FF766F
:102DB00006EA85152C4384808283CD88A0F8405094
:102DC000038470BD828B4FF2FF331A408283828B63
:102DD0004FF6FF7303EA01231A4382837047F0B56D
:102DE0000C461546002200210026078C4EF6FF7C7B
:102DF00007EA0C070784828B018C4FF6FF7707EAFE
:102E0000043640F6FF473A404FF6FF7707EA0527BA
:102E10003A434FF6FF7707EA03373A43D94FB842B0
:102E20000ED0D94FB8420BD0B0F1804F08D0D74F59
:102E3000B84205D0D64FB84202D0D64FB84206D1DC
:102E40004DF6FF77394046F48057394305E047F6A1
:102E5000FF57394044F48057394382830184F0BDE1
:102E6000828B4FF6F3731A408283828B0A438283EC
:102E70007047F0B50C461546002200210026078C4D
:102E80004FF6FF6C07EA0C070784828B018C4FF624
:102E9000FF7707EA04264FF60C773A404FF6FF77A4
:102EA00007EA03172F433A43B64FB8420ED0B64F46
:102EB000B8420BD0B0F1804F08D0B44FB84205D023
:102EC000B34FB84202D0B34FB84206D14FF6FF57C6
:102ED000394046F48077394305E04FF2FF573940D7
:102EE00044F48077394382830184F0BD028B4FF232
:102EF000FF331A400283028B4FF6FF7303EA01236C
:102F00001A4302837047F0B50C4615460022002193
:102F10000026078C4FF6EF7C07EA0C070784028B2C
:102F2000018C4FF6FF7707EA041640F6FF473A4058
:102F30004FF6FF7707EA03373A434FF6FF7707EA82
:102F400005273A438F4FB8420ED08F4FB8420BD06F
:102F5000B0F1804F08D08D4FB84205D08C4FB842A9
:102F600002D08C4FB84206D14FF6DF77394046F099
:102F70001007394305E04FF65F77394044F01007FA
:102F8000394302830184F0BD028B4FF6F3731A407C
:102F90000283028B0A4302837047F0B50C46154644
:102FA00000220021068C4FF6FE773E400684028BFD
:102FB000018C4FF60C7632407E1C06EA03162E4337
:102FC0003243704EB0420ED06F4EB0420BD0B0F1D3
:102FD000804F08D06D4EB04205D06D4EB04202D049
:102FE0006C4EB04206D14FF6FD76314044F00106FA
:102FF000314305E04FF6F576314044F001063143A8
:1030000002830184F0BD70B505460C465D488542DB
:103010000ED05D4885420BD0B5F1804F08D05B489B
:10302000854205D05A48854202D05A48854200D18F
:1030300000E000BF208850B92389A2886188284613
:10304000FFF7ABFFE1882846FFF79EFF25E02088C9
:1030500004280AD12389A28861882846FFF753FFF4
:10306000E1882846FFF742FF17E0208808280AD1A8
:103070002389A28861882846FFF7FBFEE18828465D
:10308000FFF7EEFE09E02389A28861882846FFF752
:10309000A6FEE1882846FFF795FE70BD2DE9F041B8
:1030A00005460C4600260127608808B9022600E084
:1030B0000026A088012801D1022700E001272088EE
:1030C000A0B92389A28861882846FFF766FFE188B6
:1030D0002846FFF759FF23893A4631462846FFF72D
:1030E00012FFE1882846FFF701FF13E02389A28839
:1030F00061882846FFF707FFE1882846FFF7F6FEBC
:1031000023893A4631462846FFF747FFE18828469B
:10311000FFF73AFFBDE8F0810A884B881A438B8895
:103120001A43CB881A430B891A434B891A438B895C
:103130001A43A0F8442070474FF6FF7181800021A8
:103140000180C1804180017270470021018041806F
:103150008180C180018141818181C18170470021CD
:1031600001804180012181800021C180018170475F
:103170000021018041808180C18001814181818164
:1031800070470000002C0140003401400004004062
:1031900000080040000C004021B1028842F001020A
:1031A000028004E002884FF6FE731A4002807047E6
:1031B00031B1B0F8442042F40042A0F8442005E0C8
:1031C000B0F84420C2F30E02A0F8442070471AB1B0
:1031D00083890B43838102E083898B43838170471A
:1031E0008182704741EA0203A0F8483070471AB163
:1031F00083890B43838102E083898B4383817047FA
:1032000001894FF6F8721140018170470A4600218A
:1032100001894FF68F73194011430181704730B512
:1032200004460D4629462046FFF7F0FF208940F06E
:103230000700208130BD2DE9F04104460D461646B9
:103240001F46602D06D13B46012231462046FFF73E
:103250005AFE05E03B46012231462046FFF79DFE1F
:1032600029462046FFF7D2FF208940F00700208141
:10327000BDE8F08130B50C4600210189C9B24FF696
:10328000FF7505EA0325154325432943018130BD18
:103290002DE9F04105460E46174698460024434660
:1032A0003A4631462846FFF7E5FF2C894FF6F8707D
:1032B000044044F007044FF68F70044044F070045B
:1032C0002C81BDE8F081F0B504460D4616461F4638
:1032D0003B46324629462046FFF7CCFF208940F482
:1032E00080402081F0BD0185828270470A4600211E
:1032F00001884FF68F731940114301807047F0B574
:103300000C4615461E460021002200230189028B2F
:10331000038C4FF6F877394021434FF6FC473A408B
:1033200040F201173A434FF6DD773B404FF6FF7707
:1033300007EA06172F433B43018102830384F0BD54
:103340000A460021018B4FF68F7319401143018308
:1033500070470A460021018B48F6FF7319404FF66B
:10336000FF7303EA02231943018370470A460021D1
:10337000818B4FF68F7319401143818370470A4642
:103380000021818B48F6FF7319404FF6FF7303EA63
:10339000022319438183704721B1028842F08002E1
:1033A000028004E002884FF67F731A400280704763
:1033B00021B1828842F00402828004E082884FF6C4
:1033C000FB731A408280704721B1828842F0080264
:1033D000828004E082884FF6F7731A40828070473B
:1033E00021B1828842F00102828004E082884FF697
:1033F000FE731A40828070470A460021018B4FF607
:10340000F77319401143018370470A460021018B6D
:103410004FF2FF7319404FF6FF7303EA022319437B
:10342000018370470A460021818B4FF6F7731940DC
:103430001143818370470A460021818B4FF2FF734D
:1034400019404FF6FF7303EA022319438183704743
:103450000A460021018B4FF6FB731940114301838B
:1034600070470A460021018B4FF6FF3319404FF693
:10347000FF7303EA02231943018370470A460021C0
:10348000818B4FF6FB7319401143818370470A46C5
:103490000021818B4FF6FF3319404FF6FF7303EA8B
:1034A00002231943818370470A460021018B4FF69E
:1034B0007F7319401143018370470A460021018B35
:1034C000C1F30E014FF6FF7303EA02231943018390
:1034D00070470A460021818B4FF67F7319401143D4
:1034E000818370470A460021818BC1F30E014FF69C
:1034F000FF7303EA02231943818370470A460021C0
:10350000018C4FF6FD7319401143018470470A4640
:103510000021018C4FF6F773194011430184704765
:103520000A460021018C4FF6DF7319404FF6FF73F6
:1035300003EA02131943018470470A460021018CF3
:103540004FF67F7319404FF6FF7303EA02131943D6
:10355000018470470A460021018C4FF6FF53194041
:103560004FF6FF7303EA02231943018470470A46AA
:103570000021018C4FF2FF7319404FF6FF7303EAED
:1035800002231943018470470A460021018C4DF63D
:10359000FF7319404FF6FF7303EA023319430184A6
:1035A000704730B5002301248C40A3B2048C9C43A7
:1035B0000484048C02FA01F5ADB22C43048430BDBE
:1035C00030B5002304248C40A3B2048C9C430484B3
:1035D000048C02FA01F5ADB22C43048430BD70B501
:1035E0000346002000241846183001258D40ACB257
:1035F0001D8CA5431D8409B1082909D100EB610088
:10360000056825F0700505600568154305600EE046
:103610000D1FC5F34E052844056825F4E0450560F7
:1036200005684FF6FF7606EA02263543056070BD51
:1036300021B1028842F00202028004E002884FF6C3
:10364000FD731A400280704721B1028842F00402E3
:10365000028004E002884FF6FB731A400280704734
:1036600021B1828842F08002828004E082884FF695
:103670007F731A408280704702884FF6F7731A40B2
:10368000028002880A430280704782884FF68F7357
:103690001A40828082880A438280704702894FF6EE
:1036A000F8731A40028102890A4302817047028935
:1036B0004FF67F731A40028102890A4302817047E4
:1036C0008184704781857047818670470187704784
:1036D00081877047A0F84010704702884FF6FF437B
:1036E0001A40028002880A43028070470146888E91
:1036F00070470146088F70470146888F7047014622
:10370000B1F8400070470146888C70470146088D2B
:10371000704702460020138A0B400BB1012000E0E5
:1037200000207047CA430282704730B5024600202D
:1037300000230024158A05EA0103958905EA01049E
:1037400013B10CB1012000E0002030BDCA43028259
:103750007047000010B50446FB48844209D101219E
:103760008803FFF79FF800214FF48040FFF79AF895
:1037700032E0F648844209D101214804FFF79FF85E
:1037800000214FF40030FFF79AF825E0F04884421A
:1037900009D101218804FFF792F800214FF480201D
:1037A000FFF78DF818E0EB48844209D10121C804E5
:1037B000FFF785F800214FF40020FFF780F80BE0B9
:1037C000E548844208D101210805FFF778F8002177
:1037D0004FF48010FFF773F810BD2DE9F04786B065
:1037E00005460E460024A24600BFA1460027B08928
:1037F00000B100BF2F462C8A4CF6FF700440F088C1
:1038000004432C82AC894EF6F3100440B088318911
:103810000843718908430443AC81AC8A4FF6FF40EA
:103820000440B0890443AC8201A8FEF7B4FFC64847
:10383000874202D1DDF810A001E0DDF80CA0A889D4
:1038400000F4004040B10AEBCA0000EB0A103168F6
:103850004900B0FBF1F807E00AEBCA0000EB0A10E0
:1038600031688900B0FBF1F86420B8FBF0F0040186
:103870002009642101FB1089A88900F4004040B1AF
:10388000322000EBC900B0FBF1F000F00700044368
:1038900008E0322000EB09106421B0FBF1F000F0E9
:1038A0000F0004432C8106B0BDE8F0874FF4165199
:1038B000016000218180C18001810C2141810021B2
:1038C0008181704710B502460020108A4FF2FF0335
:1038D00018400B884C8823438C882343CC8823438F
:1038E0001843108210BD0021018041808180C18079
:1038F000704721B1828942F40052828104E08289BA
:103900004DF6FF731A4082817047F0B503460024DC
:1039100000260025002040F66A17B94200D100BFFA
:103920001846C1F3421401F01F06012707FA06F5F5
:10393000012C01D10C3004E0022C01D1103000E048
:1039400014301AB107682F43076002E00768AF43DD
:103950000760F0BD1AB1838A0B43838202E0838A39
:103960008B4383827047028A4FF6F0731A400282BB
:10397000028A0A430282704782894FF2FF731A401B
:10398000828182890A438281704721B1828942F013
:103990000202828104E082894FF6FD731A4082811F
:1039A0007047028A4FF6DF731A400282028A0A4386
:1039B0000282704721B1028A42F48042028204E00E
:1039C000028A4BF6FF731A4002827047C1F3080265
:1039D0008280704701468888C0F30800704781895B
:1039E00041F0010181817047028BD2B20283028BC8
:1039F00042EA012202837047028B02F47F42028373
:103A0000028B0A430283704721B1828A42F020026E
:103A1000828204E0828A4FF6DF731A408282704706
:103A200021B1828A42F01002828204E0828A4FF63B
:103A3000EF731A408282704721B1828A42F00802F5
:103A4000828204E0828A4FF6F7731A4082827047BE
:103A500021B1828942F40042828103E08289C2F36B
:103A60000E028281704721B1828A42F40062828212
:103A700004E0828A4FF2FF731A4082827047828A82
:103A80004FF6FB731A408282828A0A438282704711
:103A900021B1828A42F00202828204E0828A4FF6D9
:103AA000FD731A408282704702460020B1F5007F04
:103AB00000D100BF13880B400BB1012000E00020B3
:103AC000704701F40072B2F5007F00D100BFCA4315
:103AD0000280704770B502460024002300250020B4
:103AE00040F66A16B14200D100BFC1F3421501F0A1
:103AF0001F03012606FA03F3012D02D196893340F4
:103B000006E0022D02D1168A334001E0968A334046
:103B10000C12012606FA04F41688344013B10CB1D5
:103B2000012000E0002070BD10B50022002340F607
:103B30006A14A14200D100BF0A1201249440A3B22A
:103B4000DC43048010BD0000003801400044004008
:103B500000480040004C00400050004010B50446B2
:103B6000BE48844208D101218014FEF79BFE00214B
:103B7000A014FEF797FE16E0B948844208D101214F
:103B80000014FEF79CFE00212014FEF798FE0AE0C8
:103B9000B448844207D10121C013FEF790FE0021F2
:103BA000E013FEF78CFE10BD10B50022028802F46F
:103BB00041520B884C8823438C882343CC88234371
:103BC0000C8923434C8923438C892343CC89234389
:103BD0001A430280838B4FF2FF74234083830B8A46
:103BE000038210BD2DE9F04F85B005460C464FF01D
:103BF000000902274FF000084FF0010B0026B246E3
:103C0000A88B4FF240010840A88302202884B5F811
:103C10001C90A068022801D100BF38E0A08810B92C
:103C20004FF0010B01E04FF0020B8D48854200D1AF
:103C300000E000BF6846FEF7AEFDDDF800A0E088BA
:103C4000B0F5007F0AD14FEA1A2000EB8000400057
:103C5000A168B0FBF1F0401D86B20BE04FEA4B10BB
:103C6000BAFBF0F000EB80004000A168B0FBF1F07F
:103C7000401D86B20A20B6FBF0F606F00108A6EB5E
:103C80000800C0F34F074FF6FF7000EA0828022F24
:103C900001DBFF2F02DD02274FF00008E08840EA39
:103CA000080038432884A088A18908436188084314
:103CB0002188084340F4006040EA0909A5F81C90F7
:103CC00005B0BDE8F08F0021018041808180C18076
:103CD000018141818181C1810721018270470021D9
:103CE000018041808180C180022181600021818129
:103CF000704721B1028842F04002028004E002884D
:103D00004FF6BF731A400280704721B1828B42F494
:103D10008062828304E0828B4FF6FF331A408283F5
:103D2000704730B5002400230C110125A540ABB22B
:103D30001AB185881D43858002E085889D43858072
:103D400030BD1AB183880B43838002E083888B43A4
:103D500083807047818170470146888970474FF69C
:103D6000FF62914204D0028842F48072028004E033
:103D700002884FF6FF631A400280704721B18288A3
:103D800042F00402828004E082884FF6FB731A40FE
:103D90008280704702884FF2FF731A4002800288C7
:103DA0000A4302807047018841F4805101807047C6
:103DB00021B1028842F40052028004E002884DF6EC
:103DC000FF731A400280704702460020012901D08B
:103DD000108B00E0908A70470146088A7047B1F561
:103DE000804F04D1028842F48042028004E00288BD
:103DF0004BF6FF731A400280704702460020138979
:103E00000B400BB1012000E000207047CA43028143
:103E10007047F0B50246002000240023002501F081
:103E20000F070126BE40B4B20B1101269E40B3B26B
:103E3000968806EA03051689264016B10DB10120C1
:103E400000E00020F0BD10B5002201F00F040123B6
:103E5000A3409AB2D343038110BD0000003001405B
:103E600000380040003C0040704700000FB4044997
:103E700010B503AA029800F043FA10BC5DF814FBD9
:103E80009800002070B5044685690068C10601D518
:103E9000302600E02026C00707D070BDD4E90121FC
:103EA00030469047206A401C20626D1EF6D570BDDA
:103EB00070B5044685690078C00707D170BDD4E9A4
:103EC000012120209047206A401C20626D1EF6D5FB
:103ED00070BD70B50C460546012A05D028788006CD
:103EE00000D5EA69002302E0012305E05B1C934250
:103EF00002D2E05C0028F9D1A869E618C01AA861CE
:103F0000286A184428622846FFF7BCFF04E0D5E978
:103F1000012114F8010B9047B442F8D32846FFF76B
:103F2000C7FF70BD2DE9F0410646002410687529D1
:103F3000314616A510D0AFF30080002802DA4042C7
:103F400013A507E031688A0701D512A502E04907E9
:103F500004D511A5012401E0AFF3008000210A225D
:103F600006F1240709E0B0FBF2FCB0FBF2F302FB20
:103F70001C00303078541846491C0028F3D12346E1
:103F80002A463046BDE8F04100F04BB90000000081
:103F90002D0000002B0000002000000070B504463A
:103FA0000D4621461068AFF300802188090502D52F
:103FB0000F4A7A4402E00E4A7A440E32002104F19C
:103FC000240305E000F00F060009965D5E54491CCD
:103FD0000028F7D120780023000704D5702D02D0E7
:103FE00009B1022311322046BDE8704000F019B932
:103FF000170500002DE9F05F894604464FF0000ADE
:10400000DFF824B1FB44C0F820A02046E1688847CF
:1040100000287DD0252806D0D4E901219047206AC8
:10402000401C2062F1E700255F462046E168884792
:104030002028064607DB312E05D2B81910F8200CCF
:1040400008B10543F1E7A80701D525F00405C4F838
:104050001CA00027C4F818A02A2E09D0304600F072
:10406000ADF938B304EB8708303EC8F8186019E0A2
:1040700059F8041B204604EB87029161E1688847E8
:10408000012F064618D1E069002820DA25F0200526
:104090001DE0D8F8180000EB800006EB4000303837
:1040A000C8F818002046E1688847064600F086F9FF
:1040B0000028EED1012F0AD02E2E08D12046E1682B
:1040C00088477F1C0646022F45F02005C4DBA06907
:1040D000002803DA404245F00105A061E80701D05D
:1040E00025F01005A6B1A6F14100192802D8203606
:1040F00045F400654A463146204625604D46FCF7AA
:1041000051F860B1012807D0ED1D25F0070000E04F
:1041100007E000F1080978E705F1040975E7304682
:104120007AE7206ABDE8F09FED040000032A40F220
:10413000308010F0030C00F0158011F8013BBCF149
:10414000020F624498BF11F801CB00F8013B38BF61
:1041500011F8013BA2F1040298BF00F801CB38BF6F
:1041600000F8013B11F0030300F02580083AC0F08D
:10417000088051F8043B083A51F804CBA0E8081035
:10418000F5E7121D5CBF51F8043B40F8043BAFF368
:104190000080D20724BF11F8013B11F801CB48BFC2
:1041A00011F8012B24BF00F8013B00F801CB48BFF8
:1041B00000F8012B704710B5203AC0F00B80B1E831
:1041C0001850203AA0E81850B1E81850A0E818504C
:1041D000BFF4F5AF5FEA027C24BFB1E81850A0E855
:1041E000185044BF18C918C0BDE810405FEA827C6F
:1041F00024BF51F8043B40F8043B08BF7047D20786
:1042000028BF31F8023B48BF11F8012B28BF20F826
:10421000023B48BF00F8012B70477047704770475A
:1042200070472DE9F0470D4699469246044600F145
:1042300024080168880604D5E06921F01001216096
:1042400000E00120A84201DD471B00E00027A16932
:104250007A1902EB0900081AA0612078C00602D47E
:104260002046FFF70FFE002608E0D4E901211AF8E6
:1042700006009047206A401C761C20624E45F4DB05
:104280002078C0060AD52046FFF7FCFD06E0D4E9F9
:10429000012130209047206A401C2062381EA7F17F
:1042A0000107F4DC07E0D4E9012118F80500904784
:1042B000206A401C2062281EA5F10105F3DC20467F
:1042C000FFF7F6FD2078000602D50220BDE8F08752
:1042D0000120FBE710B5436913B1AFF3008001E0A3
:1042E000FFF7F7FD012010BD127800F124010A70DC
:1042F00000224A700122EDE711684FF0FF32E9E732
:10430000074B70B50D467B4400F011F80446284673
:1043100000F020F810B14FF0FF3070BD204670BDA6
:10432000D9DCFFFF01694A1C02610878704700B5BB
:104330008FB0CDE901310021059105497944CDE9DE
:10434000031011466846FFF755FE0FB000BD000090
:10435000E5FFFFFF007B00F080007047754600F02E
:1043600029F8AE4605006946534620F00700854609
:1043700018B020B5FDF7E0FEBDE820404FF0000684
:104380004FF000074FF000084FF0000B21F007013D
:10439000AC46ACE8C009ACE8C009ACE8C009ACE880
:1043A000C0098D4670470446AFF300802046FBF7F6
:1043B00014FF000000487047BC01002030380A2874
:1043C00001D201207047002070470000FFFEFDFC75
:1043D000FBFAF9F8F7F6F5F4F3F2F1F0EFEEEDECA5
:1043E000EBEAE9E8E7E6E5E4E3E2E1E0DFDEDDDC95
:1043F000DBDAD9D8D7D6D5D4D3D2D1D0CFCECDCC85
:10440000CBCAC9C8C7C6C5C4C3C2C1C0BFBEBDBC74
:10441000BBBAB9B8B7B6B5B4B3B2B1B0AFAEADAC64
:10442000ABAAA9A8A7A6A5A4A3A2A1A09F9E9D9C54
:104430009B9A999897969594939291908F8E8D8C44
:104440008B8A898887868584838281807F7E7D7C34
:104450007B7A797877767574737271706F6E6D6C24
:104460006B6A696867666564636261605F5E5D5C14
:104470005B5A595857565554535251504F4E4D4C04
:104480004B4A494847464544434241403F3E3D3CF4
:104490003B3A393837363534333231302F2E2D2CE4
:1044A0002B2A292827262524232221201F1E1D1CD4
:1044B0001B1A191817161514131211100F0E0D0CC4
:1044C0000B0A090807060504030201000030313217
:1044D0003334353637383941424344454640305805
:1044E00000303132333435363738396162636465D0
:1044F0006640307800040000080000000000000062
:104500000200010000100000284500080000002003
:10451000B40000006C010008DC450008B400002075
:104520006C0700008801000800A24A040000000097
:104530000000000001020304060708090000000053
:10454000000000000000000049E0059869666498DA
:10455000D0791F39B0B18FA5059E0A88FFFFFFFFF4
:10456000FFFFFFFFFFFFFFFFAA07020009BC1020AB
:1045700030405060FF078029010203040506FFFF59
:10458000FFFFFFFFFF078029FFFFFFFFFFFF102056
:1045900030405060000000000000010203040506E6
:1045A000102030000000010203000000000800009D
:1045B00000000000000000000000000000000000FB
:1045C00000000000000000000000010203040102DE
:0C45D000030406070809020406080000A6
:0400000508000131BD
:00000001FF
